{
  "contractName": "SupplyChainFactory",
  "abi": [
    {
      "inputs": [
        {
          "internalType": "uint256",
          "name": "",
          "type": "uint256"
        }
      ],
      "name": "deployedSupplyChain",
      "outputs": [
        {
          "internalType": "address",
          "name": "",
          "type": "address"
        }
      ],
      "stateMutability": "view",
      "type": "function"
    },
    {
      "inputs": [
        {
          "internalType": "string",
          "name": "_supplyChainTitle",
          "type": "string"
        }
      ],
      "name": "createSupplyChain",
      "outputs": [],
      "stateMutability": "nonpayable",
      "type": "function"
    },
    {
      "inputs": [],
      "name": "getDeployedSupplyChain",
      "outputs": [
        {
          "internalType": "address[]",
          "name": "",
          "type": "address[]"
        }
      ],
      "stateMutability": "view",
      "type": "function"
    }
  ],
  "bytecode": "0x608060405234801561001057600080fd5b506124c6806100206000396000f3fe60806040523480156200001157600080fd5b5060043610620000465760003560e01c80635a6c28ec146200004b578063f9af908c146200006b578063fab57ffc146200008d575b600080fd5b620000696004803603810190620000639190620002dc565b620000c3565b005b6200007562000169565b60405162000084919062000497565b60405180910390f35b620000ab6004803603810190620000a591906200032d565b620001f9565b604051620000ba919062000446565b60405180910390f35b60003382604051620000d59062000239565b620000e292919062000463565b604051809103906000f080158015620000ff573d6000803e3d6000fd5b5090506000819080600181540180825580915050600190039060005260206000200160009091909190916101000a81548173ffffffffffffffffffffffffffffffffffffffff021916908373ffffffffffffffffffffffffffffffffffffffff1602179055505050565b60606000805480602002602001604051908101604052809291908181526020018280548015620001ef57602002820191906000526020600020905b8160009054906101000a900473ffffffffffffffffffffffffffffffffffffffff1673ffffffffffffffffffffffffffffffffffffffff1681526020019060010190808311620001a4575b5050505050905090565b600081815481106200020a57600080fd5b906000526020600020016000915054906101000a900473ffffffffffffffffffffffffffffffffffffffff1681565b611dfa806200069783390190565b60006200025e6200025884620004e4565b620004bb565b9050828152602081018484840111156200027d576200027c6200065c565b5b6200028a848285620005ad565b509392505050565b600082601f830112620002aa57620002a962000657565b5b8135620002bc84826020860162000247565b91505092915050565b600081359050620002d6816200067c565b92915050565b600060208284031215620002f557620002f462000666565b5b600082013567ffffffffffffffff81111562000316576200031562000661565b5b620003248482850162000292565b91505092915050565b60006020828403121562000346576200034562000666565b5b60006200035684828501620002c5565b91505092915050565b60006200036d838362000379565b60208301905092915050565b62000384816200056f565b82525050565b62000395816200056f565b82525050565b6000620003a8826200052a565b620003b481856200054d565b9350620003c1836200051a565b8060005b83811015620003f8578151620003dc88826200035f565b9750620003e98362000540565b925050600181019050620003c5565b5085935050505092915050565b6000620004128262000535565b6200041e81856200055e565b935062000430818560208601620005bc565b6200043b816200066b565b840191505092915050565b60006020820190506200045d60008301846200038a565b92915050565b60006040820190506200047a60008301856200038a565b81810360208301526200048e818462000405565b90509392505050565b60006020820190508181036000830152620004b381846200039b565b905092915050565b6000620004c7620004da565b9050620004d58282620005f2565b919050565b6000604051905090565b600067ffffffffffffffff82111562000502576200050162000628565b5b6200050d826200066b565b9050602081019050919050565b6000819050602082019050919050565b600081519050919050565b600081519050919050565b6000602082019050919050565b600082825260208201905092915050565b600082825260208201905092915050565b60006200057c8262000583565b9050919050565b600073ffffffffffffffffffffffffffffffffffffffff82169050919050565b6000819050919050565b82818337600083830152505050565b60005b83811015620005dc578082015181840152602081019050620005bf565b83811115620005ec576000848401525b50505050565b620005fd826200066b565b810181811067ffffffffffffffff821117156200061f576200061e62000628565b5b80604052505050565b7f4e487b7100000000000000000000000000000000000000000000000000000000600052604160045260246000fd5b600080fd5b600080fd5b600080fd5b600080fd5b6000601f19601f8301169050919050565b6200068781620005a3565b81146200069357600080fd5b5056fe60806040523480156200001157600080fd5b5060405162001dfa38038062001dfa8339818101604052810190620000379190620001de565b80600090805190602001906200004f92919062000099565b5081600160006101000a81548173ffffffffffffffffffffffffffffffffffffffff021916908373ffffffffffffffffffffffffffffffffffffffff160217905550505062000416565b828054620000a7906200030d565b90600052602060002090601f016020900481019282620000cb576000855562000117565b82601f10620000e657805160ff191683800117855562000117565b8280016001018555821562000117579182015b8281111562000116578251825591602001919060010190620000f9565b5b5090506200012691906200012a565b5090565b5b80821115620001455760008160009055506001016200012b565b5090565b6000620001606200015a846200026d565b62000244565b9050828152602081018484840111156200017f576200017e620003dc565b5b6200018c848285620002d7565b509392505050565b600081519050620001a581620003fc565b92915050565b600082601f830112620001c357620001c2620003d7565b5b8151620001d584826020860162000149565b91505092915050565b60008060408385031215620001f857620001f7620003e6565b5b6000620002088582860162000194565b925050602083015167ffffffffffffffff8111156200022c576200022b620003e1565b5b6200023a85828601620001ab565b9150509250929050565b60006200025062000263565b90506200025e828262000343565b919050565b6000604051905090565b600067ffffffffffffffff8211156200028b576200028a620003a8565b5b6200029682620003eb565b9050602081019050919050565b6000620002b082620002b7565b9050919050565b600073ffffffffffffffffffffffffffffffffffffffff82169050919050565b60005b83811015620002f7578082015181840152602081019050620002da565b8381111562000307576000848401525b50505050565b600060028204905060018216806200032657607f821691505b602082108114156200033d576200033c62000379565b5b50919050565b6200034e82620003eb565b810181811067ffffffffffffffff8211171562000370576200036f620003a8565b5b80604052505050565b7f4e487b7100000000000000000000000000000000000000000000000000000000600052602260045260246000fd5b7f4e487b7100000000000000000000000000000000000000000000000000000000600052604160045260246000fd5b600080fd5b600080fd5b600080fd5b600080fd5b6000601f19601f8301169050919050565b6200040781620002a3565b81146200041357600080fd5b50565b6119d480620004266000396000f3fe608060405234801561001057600080fd5b50600436106101375760003560e01c8063a1a69109116100b8578063d2d72dac1161007c578063d2d72dac146102ff578063dd3a62a21461031d578063deb4ffb71461033b578063edf3c35214610359578063f5b9427e14610375578063fc9b5d141461039357610137565b8063a1a6910914610268578063a561870014610286578063bc1e8d1f14610290578063bd06c613146102ae578063c36e3bd0146102cc57610137565b80637b681f31116100ff5780637b681f31146101d857806382d10b0d146101f657806388561d6714610212578063923e68211461022e57806396ca41601461024a57610137565b806324d420b81461013c5780632df6b0cb1461015a5780634051ddac146101785780635105b02614610198578063550325b5146101a2575b600080fd5b6101446103b1565b60405161015191906116fd565b60405180910390f35b6101626103b7565b60405161016f91906115bf565b60405180910390f35b6101806103dd565b60405161018f93929190611718565b60405180910390f35b6101a06104a4565b005b6101bc60048036038101906101b791906114d9565b61050c565b6040516101cf979695949392919061165d565b60405180910390f35b6101e0610916565b6040516101ed91906116fd565b60405180910390f35b610210600480360381019061020b9190611506565b61091c565b005b61022c60048036038101906102279190611268565b6109a2565b005b61024860048036038101906102439190611506565b610a22565b005b610252610aa8565b60405161025f91906116fd565b60405180910390f35b610270610aae565b60405161027d91906116fd565b60405180910390f35b61028e610ab4565b005b610298610b1c565b6040516102a591906115da565b60405180910390f35b6102b6610baa565b6040516102c391906116fd565b60405180910390f35b6102e660048036038101906102e191906114d9565b610bb0565b6040516102f694939291906115fc565b60405180910390f35b610307610e10565b60405161031491906116fd565b60405180910390f35b610325610e16565b60405161033291906116fd565b60405180910390f35b610343610e1c565b60405161035091906116fd565b60405180910390f35b610373600480360381019061036e91906112b1565b610e22565b005b61037d611082565b60405161038a91906115da565b60405180910390f35b61039b611110565b6040516103a891906116fd565b60405180910390f35b600b5481565b600160009054906101000a900473ffffffffffffffffffffffffffffffffffffffff1681565b6000806060600c80549050600160009054906101000a900473ffffffffffffffffffffffffffffffffffffffff16600080805461041990611873565b80601f016020809104026020016040519081016040528092919081815260200182805461044590611873565b80156104925780601f1061046757610100808354040283529160200191610492565b820191906000526020600020905b81548152906001019060200180831161047557829003601f168201915b50505050509050925092509250909192565b600160009054906101000a900473ffffffffffffffffffffffffffffffffffffffff1673ffffffffffffffffffffffffffffffffffffffff163373ffffffffffffffffffffffffffffffffffffffff16146104fe57600080fd5b600c80549050600381905550565b600c818154811061051c57600080fd5b906000526020600020906007020160009150905080600001805461053f90611873565b80601f016020809104026020016040519081016040528092919081815260200182805461056b90611873565b80156105b85780601f1061058d576101008083540402835291602001916105b8565b820191906000526020600020905b81548152906001019060200180831161059b57829003601f168201915b5050505050908060010180546105cd90611873565b80601f01602080910402602001604051908101604052809291908181526020018280546105f990611873565b80156106465780601f1061061b57610100808354040283529160200191610646565b820191906000526020600020905b81548152906001019060200180831161062957829003601f168201915b50505050509080600201805461065b90611873565b80601f016020809104026020016040519081016040528092919081815260200182805461068790611873565b80156106d45780601f106106a9576101008083540402835291602001916106d4565b820191906000526020600020905b8154815290600101906020018083116106b757829003601f168201915b5050505050908060030180546106e990611873565b80601f016020809104026020016040519081016040528092919081815260200182805461071590611873565b80156107625780601f1061073757610100808354040283529160200191610762565b820191906000526020600020905b81548152906001019060200180831161074557829003601f168201915b50505050509080600401805461077790611873565b80601f01602080910402602001604051908101604052809291908181526020018280546107a390611873565b80156107f05780601f106107c5576101008083540402835291602001916107f0565b820191906000526020600020905b8154815290600101906020018083116107d357829003601f168201915b50505050509080600501805461080590611873565b80601f016020809104026020016040519081016040528092919081815260200182805461083190611873565b801561087e5780601f106108535761010080835404028352916020019161087e565b820191906000526020600020905b81548152906001019060200180831161086157829003601f168201915b50505050509080600601805461089390611873565b80601f01602080910402602001604051908101604052809291908181526020018280546108bf90611873565b801561090c5780601f106108e15761010080835404028352916020019161090c565b820191906000526020600020905b8154815290600101906020018083116108ef57829003601f168201915b5050505050905087565b60055481565b600160009054906101000a900473ffffffffffffffffffffffffffffffffffffffff1673ffffffffffffffffffffffffffffffffffffffff163373ffffffffffffffffffffffffffffffffffffffff161461097657600080fd5b8260ff166006819055508160ff166007819055508061ffff1660088190555061099d610ab4565b505050565b600160009054906101000a900473ffffffffffffffffffffffffffffffffffffffff1673ffffffffffffffffffffffffffffffffffffffff163373ffffffffffffffffffffffffffffffffffffffff16146109fc57600080fd5b8060049080519060200190610a12929190611116565b50600c8054905060058190555050565b600160009054906101000a900473ffffffffffffffffffffffffffffffffffffffff1673ffffffffffffffffffffffffffffffffffffffff163373ffffffffffffffffffffffffffffffffffffffff1614610a7c57600080fd5b8260ff166009819055508160ff16600a819055508061ffff16600b81905550610aa36104a4565b505050565b60025481565b60065481565b600160009054906101000a900473ffffffffffffffffffffffffffffffffffffffff1673ffffffffffffffffffffffffffffffffffffffff163373ffffffffffffffffffffffffffffffffffffffff1614610b0e57600080fd5b600c80549050600281905550565b60048054610b2990611873565b80601f0160208091040260200160405190810160405280929190818152602001828054610b5590611873565b8015610ba25780601f10610b7757610100808354040283529160200191610ba2565b820191906000526020600020905b815481529060010190602001808311610b8557829003601f168201915b505050505081565b60085481565b600d8181548110610bc057600080fd5b9060005260206000209060040201600091509050806000018054610be390611873565b80601f0160208091040260200160405190810160405280929190818152602001828054610c0f90611873565b8015610c5c5780601f10610c3157610100808354040283529160200191610c5c565b820191906000526020600020905b815481529060010190602001808311610c3f57829003601f168201915b505050505090806001018054610c7190611873565b80601f0160208091040260200160405190810160405280929190818152602001828054610c9d90611873565b8015610cea5780601f10610cbf57610100808354040283529160200191610cea565b820191906000526020600020905b815481529060010190602001808311610ccd57829003601f168201915b505050505090806002018054610cff90611873565b80601f0160208091040260200160405190810160405280929190818152602001828054610d2b90611873565b8015610d785780601f10610d4d57610100808354040283529160200191610d78565b820191906000526020600020905b815481529060010190602001808311610d5b57829003601f168201915b505050505090806003018054610d8d90611873565b80601f0160208091040260200160405190810160405280929190818152602001828054610db990611873565b8015610e065780601f10610ddb57610100808354040283529160200191610e06565b820191906000526020600020905b815481529060010190602001808311610de957829003601f168201915b5050505050905084565b600a5481565b60095481565b60075481565b600160009054906101000a900473ffffffffffffffffffffffffffffffffffffffff1673ffffffffffffffffffffffffffffffffffffffff163373ffffffffffffffffffffffffffffffffffffffff1614610e7c57600080fd5b60006040518060e001604052808d81526020018c81526020018b81526020018a8152602001898152602001888152602001878152509050600c8190806001815401808255809150506001900390600052602060002090600702016000909190919091506000820151816000019080519060200190610efb929190611116565b506020820151816001019080519060200190610f18929190611116565b506040820151816002019080519060200190610f35929190611116565b506060820151816003019080519060200190610f52929190611116565b506080820151816004019080519060200190610f6f929190611116565b5060a0820151816005019080519060200190610f8c929190611116565b5060c0820151816006019080519060200190610fa9929190611116565b50505060006040518060800160405280878152602001868152602001858152602001848152509050600d8190806001815401808255809150506001900390600052602060002090600402016000909190919091506000820151816000019080519060200190611019929190611116565b506020820151816001019080519060200190611036929190611116565b506040820151816002019080519060200190611053929190611116565b506060820151816003019080519060200190611070929190611116565b50505050505050505050505050505050565b6000805461108f90611873565b80601f01602080910402602001604051908101604052809291908181526020018280546110bb90611873565b80156111085780601f106110dd57610100808354040283529160200191611108565b820191906000526020600020905b8154815290600101906020018083116110eb57829003601f168201915b505050505081565b60035481565b82805461112290611873565b90600052602060002090601f016020900481019282611144576000855561118b565b82601f1061115d57805160ff191683800117855561118b565b8280016001018555821561118b579182015b8281111561118a57825182559160200191906001019061116f565b5b509050611198919061119c565b5090565b5b808211156111b557600081600090555060010161119d565b5090565b60006111cc6111c78461177b565b611756565b9050828152602081018484840111156111e8576111e7611939565b5b6111f3848285611831565b509392505050565b600082601f8301126112105761120f611934565b5b81356112208482602086016111b9565b91505092915050565b60008135905061123881611959565b92915050565b60008135905061124d81611970565b92915050565b60008135905061126281611987565b92915050565b60006020828403121561127e5761127d611943565b5b600082013567ffffffffffffffff81111561129c5761129b61193e565b5b6112a8848285016111fb565b91505092915050565b60008060008060008060008060008060006101608c8e0312156112d7576112d6611943565b5b60008c013567ffffffffffffffff8111156112f5576112f461193e565b5b6113018e828f016111fb565b9b505060208c013567ffffffffffffffff8111156113225761132161193e565b5b61132e8e828f016111fb565b9a505060408c013567ffffffffffffffff81111561134f5761134e61193e565b5b61135b8e828f016111fb565b99505060608c013567ffffffffffffffff81111561137c5761137b61193e565b5b6113888e828f016111fb565b98505060808c013567ffffffffffffffff8111156113a9576113a861193e565b5b6113b58e828f016111fb565b97505060a08c013567ffffffffffffffff8111156113d6576113d561193e565b5b6113e28e828f016111fb565b96505060c08c013567ffffffffffffffff8111156114035761140261193e565b5b61140f8e828f016111fb565b95505060e08c013567ffffffffffffffff8111156114305761142f61193e565b5b61143c8e828f016111fb565b9450506101008c013567ffffffffffffffff81111561145e5761145d61193e565b5b61146a8e828f016111fb565b9350506101208c013567ffffffffffffffff81111561148c5761148b61193e565b5b6114988e828f016111fb565b9250506101408c013567ffffffffffffffff8111156114ba576114b961193e565b5b6114c68e828f016111fb565b9150509295989b509295989b9093969950565b6000602082840312156114ef576114ee611943565b5b60006114fd8482850161123e565b91505092915050565b60008060006060848603121561151f5761151e611943565b5b600061152d86828701611253565b935050602061153e86828701611253565b925050604061154f86828701611229565b9150509250925092565b611562816117da565b82525050565b611571816117c8565b82525050565b6000611582826117ac565b61158c81856117b7565b935061159c818560208601611840565b6115a581611948565b840191505092915050565b6115b98161181a565b82525050565b60006020820190506115d46000830184611559565b92915050565b600060208201905081810360008301526115f48184611577565b905092915050565b600060808201905081810360008301526116168187611577565b9050818103602083015261162a8186611577565b9050818103604083015261163e8185611577565b905081810360608301526116528184611577565b905095945050505050565b600060e0820190508181036000830152611677818a611577565b9050818103602083015261168b8189611577565b9050818103604083015261169f8188611577565b905081810360608301526116b38187611577565b905081810360808301526116c78186611577565b905081810360a08301526116db8185611577565b905081810360c08301526116ef8184611577565b905098975050505050505050565b600060208201905061171260008301846115b0565b92915050565b600060608201905061172d60008301866115b0565b61173a6020830185611568565b818103604083015261174c8184611577565b9050949350505050565b6000611760611771565b905061176c82826118a5565b919050565b6000604051905090565b600067ffffffffffffffff82111561179657611795611905565b5b61179f82611948565b9050602081019050919050565b600081519050919050565b600082825260208201905092915050565b60006117d3826117fa565b9050919050565b60006117e5826117fa565b9050919050565b600061ffff82169050919050565b600073ffffffffffffffffffffffffffffffffffffffff82169050919050565b6000819050919050565b600060ff82169050919050565b82818337600083830152505050565b60005b8381101561185e578082015181840152602081019050611843565b8381111561186d576000848401525b50505050565b6000600282049050600182168061188b57607f821691505b6020821081141561189f5761189e6118d6565b5b50919050565b6118ae82611948565b810181811067ffffffffffffffff821117156118cd576118cc611905565b5b80604052505050565b7f4e487b7100000000000000000000000000000000000000000000000000000000600052602260045260246000fd5b7f4e487b7100000000000000000000000000000000000000000000000000000000600052604160045260246000fd5b600080fd5b600080fd5b600080fd5b600080fd5b6000601f19601f8301169050919050565b611962816117ec565b811461196d57600080fd5b50565b6119798161181a565b811461198457600080fd5b50565b61199081611824565b811461199b57600080fd5b5056fea2646970667358221220dd7e8a329831936ea945faaedfa3505546e1100fdbb8f31dea4d58ea90f9d3fa64736f6c63430008070033a26469706673582212203575812cbb89248eb6c4184e2f486bdd3dfab98d7ac8ff98d1347f5079c433c564736f6c63430008070033",
  "immutableReferences": {},
  "source": "// SPDX-License-Identifier: GPL-3.0\r\npragma solidity >=0.7.0 <0.9.0;\r\n\r\ncontract SupplyChainFactory{\r\n    \r\n    address[] public deployedSupplyChain;\r\n\r\n    function createSupplyChain( string memory _supplyChainTitle ) public {\r\n        FoodSupplyChain newSupplyChain = new FoodSupplyChain(   msg.sender, \r\n                                                                 _supplyChainTitle );\r\n\r\n        deployedSupplyChain.push( address(newSupplyChain) );\r\n    }\r\n    \r\n    function getDeployedSupplyChain() public view returns( address[] memory ){\r\n        return deployedSupplyChain;\r\n    }\r\n}\r\n\r\ncontract FoodSupplyChain{\r\n    \r\n    string public supplyChainTitle;\r\n    address payable public manufactureAddress;\r\n    uint public productExpiredDateInsertedOnChain;\r\n    uint public productArrivalDateInsertedOnChain;\r\n    string public madeWith;\r\n    uint public madeWithInsertedOnChain;\r\n    \r\n    uint public productExpiredDay;\r\n    uint public productExpiredMonth;\r\n    uint public productExpiredYear;\r\n    \r\n    uint public productArrivalDay;\r\n    uint public productArrivalMonth;\r\n    uint public productArrivalYear;\r\n\r\n    struct Chain{\r\n        string chainName;\r\n        string productName;\r\n        string productImageLink;\r\n        string ProductImageInformation;\r\n        string chainLocation;\r\n        string tagName;\r\n        string tagInformation;\r\n    }\r\n    Chain[] public chains;\r\n    \r\n    struct CompanyInformation{\r\n        string madeByCompanyName;\r\n        string madeByCompanyLogoLink;\r\n        string madeByCompanyInformation;\r\n        string madeByCompanyLocation;\r\n    }\r\n    CompanyInformation[] public companyInformations;\r\n    \r\n    modifier restrictedOnlyForManufacture(){\r\n        require( msg.sender == manufactureAddress );\r\n        _;\r\n    }\r\n\r\n    constructor(    address manager, \r\n                    string memory _supplyChainTitle \r\n    ){\r\n        supplyChainTitle = _supplyChainTitle;\r\n        manufactureAddress = payable( manager );\r\n    }\r\n    \r\n    /*\r\n        Insert data by Manufacture \r\n    */\r\n    function createChain (    \r\n                           \r\n                            string memory _chainName,\r\n                            string memory _productName,\r\n                            string memory _productImageLink,\r\n                            string memory _ProductImageInforrmation,\r\n                            string memory _chainLocation,\r\n                            string memory _tagName,\r\n                            string memory _tagInformation,\r\n                            string memory _madeByCompanyName,\r\n                            string memory _madeByCompanyLogoLink,\r\n                            string memory _madeByCompanyInformation,\r\n                            string memory _madeByCompanyLocation\r\n                            \r\n    ) public restrictedOnlyForManufacture {\r\n        \r\n        Chain memory newChain = Chain({\r\n            chainName: _chainName,\r\n            productName: _productName,\r\n            productImageLink: _productImageLink,\r\n            ProductImageInformation: _ProductImageInforrmation,\r\n            chainLocation: _chainLocation,\r\n            tagName: _tagName,\r\n            tagInformation: _tagInformation\r\n        });\r\n        \r\n        chains.push( newChain );\r\n        \r\n        CompanyInformation memory newCompanyInformation = CompanyInformation({\r\n            madeByCompanyName: _madeByCompanyName,\r\n            madeByCompanyLogoLink: _madeByCompanyLogoLink,\r\n            madeByCompanyInformation: _madeByCompanyInformation,\r\n            madeByCompanyLocation: _madeByCompanyLocation\r\n        });\r\n        \r\n        companyInformations.push( newCompanyInformation );\r\n    }\r\n    \r\n    function insertMadeWith( string memory _madeWith ) public restrictedOnlyForManufacture {\r\n        madeWith = _madeWith;\r\n        madeWithInsertedOnChain = chains.length;\r\n    }\r\n    \r\n    function insertProductExpiredDate(\r\n         uint8 day,\r\n         uint8 month,\r\n         uint16 year\r\n    ) public restrictedOnlyForManufacture {\r\n        \r\n        productExpiredDay = day;\r\n        productExpiredMonth = month;\r\n        productExpiredYear =  year;\r\n        setProductExpiredDateOnChain();\r\n    }\r\n    \r\n    function insertProductArrivalDate(\r\n         uint8 day,\r\n         uint8 month,\r\n         uint16 year\r\n    ) public restrictedOnlyForManufacture {\r\n        productArrivalDay = day;\r\n        productArrivalMonth = month;\r\n        productArrivalYear =  year;\r\n        setProductArrivalDateOnChain();\r\n    }\r\n\r\n    function setProductExpiredDateOnChain() public restrictedOnlyForManufacture {\r\n        productExpiredDateInsertedOnChain = chains.length;\r\n    }\r\n\r\n    function setProductArrivalDateOnChain() public restrictedOnlyForManufacture {\r\n        productArrivalDateInsertedOnChain = chains.length;\r\n    }\r\n\r\n    function getSummary() public view returns(  uint,\r\n                                                address,\r\n                                                string memory\r\n    ){\r\n        return(\r\n            chains.length,\r\n            manufactureAddress,\r\n            supplyChainTitle\r\n        );\r\n    }\r\n\r\n    /*\r\n        Destroy Contract by Manufacture\r\n    */\r\n    /*function destroyContract() public restrictedOnlyForManufacture{\r\n        //\r\n        //    sending all funds to the manager public account \r\n        //\r\n        selfdestruct( manufactureAddress );\r\n    }*/\r\n}",
  "sourcePath": "E:\\SupplyChain\\contracts\\FoodSupplyChain.sol",
  "compiler": {
    "name": "solc",
    "version": "0.8.7+commit.e28d00a7.Emscripten.clang"
  },
  "schemaVersion": "3.4.3",
  "updatedAt": "2021-10-13T05:02:46.381Z",
  "devdoc": {
    "kind": "dev",
    "methods": {},
    "version": 1
  },
  "userdoc": {
    "kind": "user",
    "methods": {},
    "version": 1
  }
}